:020000020000FC
:02000000FFC03F
:100200000FEF00933D000FE300933E004AD05AD019
:10021000C0E0CABFD0E2C0E0E0E0EBBFF0E2E0E067
:100220000091880601FF21C0009108060093440652
:100230000091A80602FDF4CF06E0009300080091AB
:100240000C0800FFFCCF00E00093000801E00093E1
:100250000C080091A80602FDE3CF0091A80602FF5A
:10026000FCCF009108060993DBCFE0E0EBBFF0E2A2
:10027000E0E00091880600FFD3CFEC1719F4FD17DA
:1002800009F4F3CF01910093440606E000930008BF
:1002900000910C0800FFFCCF01E000930C08E9CFAF
:1002A000FFCF0F930FEF009344060093400600E04A
:1002B0000093000604E00093A20603E00093820688
:1002C0000F9108950F9300270093200800932108B1
:1002D00006E80093260801E0009327080F9108958F
:00000001FF
