:020000020000FC
:02000000FFC03F
:020038001FC1E6
:100200000FEF00933D000FE300933E000CD019D098
:1002100029D00091A80603FDFCCF009108060093A9
:100220004406F7CFFFCF0F930FEF009344060093E0
:10023000400600E0009300060CE00093A2060F9138
:1002400008950F930027009320080093210804EBE2
:10025000009326080DE20093270805E000930008AC
:100260000F9108950F9301E00093060801E00093B9
:10027000A20078940F9108950F9300913F000F937F
:100280000091A80602FD06C0009144060395009364
:10029000440603C00FEF0093470601E000930C08EB
:0A02A0000F9100933F000F91189595
:00000001FF
