:020000020000FC
:02000000FFC03F
:02016000B1C02C
:100200000FEF00933D000FE300933E0007D013D0A3
:1002100021D000E200936706FCCFFFCF0F9300E2EE
:10022000009365060093610608E00093650600935D
:1002300061060F9108950F9303E30093A50901E070
:100240000093A60900EC0093A70908E10093A40914
:100250000F9108950F9300E10093A30901E000932B
:10026000A20078940F9108950F930091A10905FFC2
:10027000FCCF1093A0090F91089500E01791F4DFCF
:100280000113FCCF0895C0E0D7E300E01991ECDF43
:100290000113FCCF08951091A10917FFFCCF109115
:1002A000A0090895F8DF1D3031F0183039F01F37FC
:1002B00029F01993F7CF10E01993089510E01A93DD
:1002C000F1CF08950F9300913F000F931091A00973
:1002D0000091A10905FFFCCF1093A0091D3019F46E
:1002E0001AE01093A0090F9100933F000F91189509
:00000001FF
