:100000000C94FE000C9416010C9416010C9416012D
:100010000C9416010C9416010C9416010C94160104
:100020000C9416010C9416010C9416010C941601F4
:100030000C9416010C9416010C94E7010C94160113
:100040000C9416010C9416010C9416010C941601D4
:100050000C9416010C9416010C9416010C941601C4
:100060000C9416010C9416010C9416010C941601B4
:100070000C9416010C9416010C9416010C941601A4
:100080000C9416010C9416010C9416010C94160194
:100090000C9416010C9416010C9416010C94160184
:1000A0000C9416010C9416010C9416010C94160174
:1000B0000C9416010C9416010C9416010C94160164
:1000C0000C9416010C9416010C9416010C94160154
:1000D0000C9416010C9416010C9416010C94160144
:1000E0000C9416010C9416010C9416010C94160134
:1000F0000C9416010C9416010C9416010C94160124
:100100000C9416010C9416010C9416010C94160113
:100110000C9416010C9416010C9416010C94160103
:100120000C9416010C9416010C9416010C941601F3
:100130000C9416010C9416010C9416010C941601E3
:100140000C9416010C9416010C9416010C941601D3
:100150000C9416010C9416010C9416010C941601C3
:100160000C943A020C9416010C9416010C9416018E
:100170000C9416010C9416010C9416010C941601A3
:100180000C9416010C9416010C9416010C94160193
:100190000C9416010C9416010C9416010C94160183
:1001A0000C9416010C9416010C9416010C94160173
:1001B0000C9416010C9416010C9416010C94160163
:1001C0000C9416010C9416010C9416010C94160153
:1001D0000C9416010C9416010C9416010C94160143
:1001E0000C9416010C9416010C9416010C94160133
:1001F0000C9416010C9416010C94160111241FBEC8
:10020000CFEFCDBFDFE3DEBF00E00CBF18BE19BEED
:100210001ABE1BBE20E2A0E0B0E201C01D92A230D7
:10022000B207E1F70E9418010C9491020C940000AF
:10023000CF93DF931F921F92CDB7DEB70E94990133
:100240000E9442010E9468010E94AB010E948B0142
:100250008091002090910120892F990F990B89831B
:1002600080910020909101208A838A81082E000CC1
:10027000990B0E94CC018981082E000C990B0E94D9
:10028000CC01E6CFCF93DF93CDB7DEB780E092E02D
:1002900020E1FC01218380E092E020E3FC01228345
:1002A00080E092E021E0FC0120A380E092E021E0E8
:1002B000FC0123A380E092E022E0FC01238380E0A4
:1002C00092E021E0FC0120830000DF91CF910895AE
:1002D000CF93DF93CDB7DEB780E098E0FC0110A2AA
:1002E00011A280E098E020E23EE4FC0126A337A3BF
:1002F00080E098E021E0FC01208380E098E021E0AC
:10030000FC01268380E891E020ECFC0120830000C2
:10031000DF91CF910895CF93DF93CDB7DEB780EA19
:1003200090E021E0FC01228378940000DF91CF91DE
:100330000895CF93DF93CDB7DEB780E696E028E24D
:10034000FC01258380E696E028E2FC012183000081
:10035000DF91CF910895CF93DF93CDB7DEB780EAD9
:1003600099E023E0FC01258380EA99E021E0FC018B
:10037000268380EA99E020ECFC01278380EA99E05B
:1003800028E1FC01248380EA99E020E1FC01238339
:100390000000DF91CF910895CF93DF931F92CDB7E7
:1003A000DEB7898380EA99E02981FC01208300007F
:1003B00080EA99E0FC018181882F90E08072992782
:1003C000892BB1F300000F90DF91CF9108951F9218
:1003D0000F9200903F000F921124009038000F926E
:1003E0001092380000903A000F9210923A0000905C
:1003F0003B000F9210923B002F938F939F93EF93AC
:10040000FF93CF93DF93CDB7DEB7000080E092E09B
:10041000FC0183A1882F90E081709927892BB1F38B
:1004200080E092E0FC0184A195A18093002090934C
:10043000012080E696E020E2FC01278380E098E03E
:1004400021E0FC0126830000DF91CF91FF91EF9125
:100450009F918F912F910F9000923B000F900092EF
:100460003A000F90009238000F9000923F000F90DA
:100470001F9018951F920F9200903F000F92112429
:10048000009038000F921092380000903A000F92BE
:1004900010923A0000903B000F9210923B002F9375
:1004A0008F939F93EF93FF93CF93DF93CDB7DEB7F7
:1004B000000080EA99E0FC018181882F90E0807241
:1004C0009927892BB1F380EA99E0FC01808183347C
:1004D00031F480E092E02AE0FC0121A30BC080EA25
:1004E00099E0FC0180818A3429F480E092E021E2E5
:1004F000FC0121A30000DF91CF91FF91EF919F912B
:100500008F912F910F9000923B000F9000923A0034
:100510000F90009238000F9000923F000F901F90B4
:060520001895F894FFCFCE
:00000001FF
