:020000020000FC
:02000000FFC03F
:0201A0006FC02E
:020038002FC1D6
:100200000FEF00933D000FE300933E0008D017D09E
:1002100024D04FEF00E400936706FCCFFFCF0F938D
:100220000FEF009344060093400600E40093650638
:100230000093610604E00093A2060F9108950F93C6
:100240000027009320080093210800E2009326086D
:100250000EE4009327080F9108950F9304E0009394
:10026000AA0601E00093A90602E00093B20601E0AD
:100270000093A30901E00093A20078940F910895E0
:100280000F9300913F000F9301E0009300080F913E
:1002900000933F000F9118950F9300913F000F932B
:1002A0000091A80602FF4A954093440601E000939E
:1002B0000C0800E0009300080F9100933F000F919D
:0202C00018958F
:00000001FF
