S012000050726163746963616C322E737265634D
S11300000C94FE000C9424010C9424010C942401FF
S11300100C9424010C9424010C9424010C942401C8
S11300200C9424010C9424010C9424010C942401B8
S11300300C9424010C9424010C9410020C942401BB
S11300400C9424010C9424010C9424010C94240198
S11300500C9424010C9424010C9424010C94240188
S11300600C9424010C9424010C9424010C94240178
S11300700C9424010C9424010C9424010C94240168
S11300800C9424010C9424010C9424010C94240158
S11300900C9424010C9424010C9424010C94240148
S11300A00C9424010C9424010C9424010C94240138
S11300B00C9424010C9424010C9424010C94240128
S11300C00C9424010C9424010C9424010C94240118
S11300D00C9424010C9424010C9424010C94240108
S11300E00C9424010C9424010C9424010C942401F8
S11300F00C9424010C9424010C9424010C942401E8
S11301000C9424010C9424010C9424010C942401D7
S11301100C9424010C9424010C9424010C942401C7
S11301200C9424010C9424010C9424010C942401B7
S11301300C9424010C9424010C9424010C942401A7
S11301400C9424010C9424010C9424010C94240197
S11301500C9424010C9424010C9424010C94240187
S11301600C9424010C9424010C9424010C94240177
S11301700C9424010C9424010C9424010C94240167
S11301800C9424010C9424010C9424010C94240157
S11301900C9424010C9424010C9424010C94240147
S11301A00C9424010C9424010C9424010C94240137
S11301B00C9424010C9424010C9424010C94240127
S11301C00C9424010C9424010C9424010C94240117
S11301D00C9424010C9424010C9424010C94240107
S11301E00C9424010C9424010C9424010C942401F7
S11301F00C9424010C9424010C94240111241FBE9A
S1130200CFEFCDBFDFE3DEBF00E00CBF18BE19BEE9
S11302101ABE1BBE10E2A0E0B0E2EAE1F5E000E0A5
S11302200BBF02C007900D92A630B107D9F71BBED1
S113023020E2A6E0B0E201C01D92AC30B207E1F7C3
S11302400E943C010C948B020C9400008F9382E07A
S1130250809350008091510081FFFCCF88ED809302
S1130260340081E08093400088ED8093340080E086
S1130270809341008F910895CF93DF93CDB7DEB77C
S11302800E9426010E94A80180EA9EE08093082033
S1130290909309200E94D9010E94B5010E94CB01CC
S11302A010920A2080E896E0FC018085817080939A
S11302B00B2080910B208823A1F490910B20809136
S11302C00A20981771F080EA9EE0809308209093AA
S11302D009200E94D90180E098E021E0FC012083FC
S11302E017C080910B20813099F490910B2080915C
S11302F00A20981769F088E892E180930820909387
S113030009200E94D90180E098E021E0FC012083CB
S113031080910B2080930A20000080E093E0FC0190
S11303208581882F90E081709927892BB1F380E033
S113033093E02091062030910720220F331F205094
S1130340304EF90120813181FC01208F318FAACFF9
S1130350CF93DF93CDB7DEB780E896E021E0FC01D0
S113036022830000DF91CF910895CF93DF93CDB71F
S1130370DEB780E093E0FC01118280E093E028E1A5
S1130380FC01228380E093E025E0FC01208300004F
S1130390DF91CF910895CF93DF93CDB7DEB780EA95
S11303A090E021E0FC01228378940000DF91CF915A
S11303B008950F931F93CF93DF93CDB7DEB780E0FB
S11303C098E0FC0110A211A200E018E0209108209E
S11303D030910920C901880F991F820F931F9C0136
S11303E0990F440B550B80E098E4A8EEB1E0BC01F2
S11303F0CD010E944A02DA01C901F80186A397A33C
S113040080E098E021E0FC01268380E098E021E090
S1130410FC0126830000DF91CF911F910F91089575
S11304201F920F9200903F000F9211240090380009
S11304300F921092380000903A000F9210923A00F6
S11304408F939F93CF93DF93CDB7DEB78091062030
S11304509091072001968093062090930720809125
S1130460062090910720039721F410920620109201
S113047007200000DF91CF919F918F910F90009200
S11304803A000F90009238000F9000923F000F90B6
S11304901F901895052E97FB1EF400940E9461028C
S11304A057FD07D00E94690207FC03D04EF40C9458
S11304B0610250954095309521953F4F4F4F5F4FC6
S11304C0089590958095709561957F4F8F4F9F4FBC
S11304D00895A1E21A2EAA1BBB1BFD010DC0AA1F81
S11304E0BB1FEE1FFF1FA217B307E407F50720F099
S11304F0A21BB30BE40BF50B661F771F881F991F14
S11305001A9469F760957095809590959B01AC015C
S10D0510BD01CF010895F894FFCF58
S109051A0000FF07FF0FC3
S9030000FC
